{
  "contractName": "Cert",
  "abi": [
    {
      "inputs": [],
      "payable": false,
      "stateMutability": "nonpayable",
      "type": "constructor"
    },
    {
      "constant": true,
      "inputs": [],
      "name": "count",
      "outputs": [
        {
          "internalType": "uint256",
          "name": "",
          "type": "uint256"
        }
      ],
      "payable": false,
      "stateMutability": "view",
      "type": "function"
    },
    {
      "constant": true,
      "inputs": [
        {
          "internalType": "string",
          "name": "",
          "type": "string"
        }
      ],
      "name": "tasks",
      "outputs": [
        {
          "internalType": "uint256",
          "name": "id",
          "type": "uint256"
        },
        {
          "internalType": "string",
          "name": "hashval",
          "type": "string"
        },
        {
          "internalType": "string",
          "name": "name",
          "type": "string"
        },
        {
          "internalType": "string",
          "name": "course",
          "type": "string"
        },
        {
          "internalType": "string",
          "name": "issuer",
          "type": "string"
        },
        {
          "internalType": "string",
          "name": "date",
          "type": "string"
        },
        {
          "internalType": "string",
          "name": "percentage",
          "type": "string"
        },
        {
          "internalType": "bool",
          "name": "exists",
          "type": "bool"
        }
      ],
      "payable": false,
      "stateMutability": "view",
      "type": "function"
    },
    {
      "constant": false,
      "inputs": [
        {
          "internalType": "string",
          "name": "_hashval",
          "type": "string"
        },
        {
          "internalType": "string",
          "name": "_name",
          "type": "string"
        },
        {
          "internalType": "string",
          "name": "_course",
          "type": "string"
        },
        {
          "internalType": "string",
          "name": "_issuer",
          "type": "string"
        },
        {
          "internalType": "string",
          "name": "_date",
          "type": "string"
        },
        {
          "internalType": "string",
          "name": "_percentage",
          "type": "string"
        }
      ],
      "name": "createTask",
      "outputs": [],
      "payable": false,
      "stateMutability": "nonpayable",
      "type": "function"
    }
  ],
  "bytecode": "0x6080604052600080553480156200001557600080fd5b50620000fa6040518060400160405280600381526020016231323360e81b8152506040518060400160405280601381526020017f4d69727a61204d6f68616d6d61642042616967000000000000000000000000008152506040518060400160405280600c81526020016b74657374696e67205765623360a01b81525060405180604001604052806005815260200164109594925560da1b8152506040518060400160405280600a815260200169189a969898969918191960b11b8152506040518060400160405280600381526020016203130360ec1b8152506200010060201b60201c565b6200032f565b60008081548092919060010191905055506040518061010001604052806000548152602001878152602001868152602001858152602001848152602001838152602001828152602001600115158152506001876040518082805190602001908083835b60208310620001845780518252601f19909201916020918201910162000163565b51815160209384036101000a6000190180199092169116179052920194855250604051938490038101909320845181558484015180519194620001d0945060018601935001906200028a565b5060408201518051620001ee9160028401916020909101906200028a565b50606082015180516200020c9160038401916020909101906200028a565b50608082015180516200022a9160048401916020909101906200028a565b5060a08201518051620002489160058401916020909101906200028a565b5060c08201518051620002669160068401916020909101906200028a565b5060e091909101516007909101805460ff1916911515919091179055505050505050565b828054600181600116156101000203166002900490600052602060002090601f016020900481019282601f10620002cd57805160ff1916838001178555620002fd565b82800160010185558215620002fd579182015b82811115620002fd578251825591602001919060010190620002e0565b506200030b9291506200030f565b5090565b6200032c91905b808211156200030b576000815560010162000316565b90565b610cab806200033f6000396000f3fe608060405234801561001057600080fd5b50600436106100415760003560e01c806306661abd146100465780634782e1aa1461006057806358709cf21461039f575b600080fd5b61004e6106cb565b60408051918252519081900360200190f35b61039d600480360360c081101561007657600080fd5b810190602081018135600160201b81111561009057600080fd5b8201836020820111156100a257600080fd5b803590602001918460018302840111600160201b831117156100c357600080fd5b91908080601f0160208091040260200160405190810160405280939291908181526020018383808284376000920191909152509295949360208101935035915050600160201b81111561011557600080fd5b82018360208201111561012757600080fd5b803590602001918460018302840111600160201b8311171561014857600080fd5b91908080601f0160208091040260200160405190810160405280939291908181526020018383808284376000920191909152509295949360208101935035915050600160201b81111561019a57600080fd5b8201836020820111156101ac57600080fd5b803590602001918460018302840111600160201b831117156101cd57600080fd5b91908080601f0160208091040260200160405190810160405280939291908181526020018383808284376000920191909152509295949360208101935035915050600160201b81111561021f57600080fd5b82018360208201111561023157600080fd5b803590602001918460018302840111600160201b8311171561025257600080fd5b91908080601f0160208091040260200160405190810160405280939291908181526020018383808284376000920191909152509295949360208101935035915050600160201b8111156102a457600080fd5b8201836020820111156102b657600080fd5b803590602001918460018302840111600160201b831117156102d757600080fd5b91908080601f0160208091040260200160405190810160405280939291908181526020018383808284376000920191909152509295949360208101935035915050600160201b81111561032957600080fd5b82018360208201111561033b57600080fd5b803590602001918460018302840111600160201b8311171561035c57600080fd5b91908080601f0160208091040260200160405190810160405280939291908181526020018383808284376000920191909152509295506106d1945050505050565b005b610443600480360360208110156103b557600080fd5b810190602081018135600160201b8111156103cf57600080fd5b8201836020820111156103e157600080fd5b803590602001918460018302840111600160201b8311171561040257600080fd5b91908080601f01602080910402602001604051908101604052809392919081815260200183838082843760009201919091525092955061084d945050505050565b604051808981526020018060200180602001806020018060200180602001806020018815151515815260200187810387528e818151815260200191508051906020019080838360005b838110156104a457818101518382015260200161048c565b50505050905090810190601f1680156104d15780820380516001836020036101000a031916815260200191505b5087810386528d5181528d516020918201918f019080838360005b838110156105045781810151838201526020016104ec565b50505050905090810190601f1680156105315780820380516001836020036101000a031916815260200191505b5087810385528c5181528c516020918201918e019080838360005b8381101561056457818101518382015260200161054c565b50505050905090810190601f1680156105915780820380516001836020036101000a031916815260200191505b5087810384528b5181528b516020918201918d019080838360005b838110156105c45781810151838201526020016105ac565b50505050905090810190601f1680156105f15780820380516001836020036101000a031916815260200191505b5087810383528a5181528a516020918201918c019080838360005b8381101561062457818101518382015260200161060c565b50505050905090810190601f1680156106515780820380516001836020036101000a031916815260200191505b5087810382528951815289516020918201918b019080838360005b8381101561068457818101518382015260200161066c565b50505050905090810190601f1680156106b15780820380516001836020036101000a031916815260200191505b509e50505050505050505050505050505060405180910390f35b60005481565b60008081548092919060010191905055506040518061010001604052806000548152602001878152602001868152602001858152602001848152602001838152602001828152602001600115158152506001876040518082805190602001908083835b602083106107535780518252601f199092019160209182019101610734565b51815160209384036101000a600019018019909216911617905292019485525060405193849003810190932084518155848401518051919461079d94506001860193500190610bdb565b50604082015180516107b9916002840191602090910190610bdb565b50606082015180516107d5916003840191602090910190610bdb565b50608082015180516107f1916004840191602090910190610bdb565b5060a0820151805161080d916005840191602090910190610bdb565b5060c08201518051610829916006840191602090910190610bdb565b5060e091909101516007909101805460ff1916911515919091179055505050505050565b80516020818301810180516001808352938301948301949094209390528254838301805460408051600296831615610100026000190190921695909504601f810185900485028201850190955284815291949391929091908301828280156108f65780601f106108cb576101008083540402835291602001916108f6565b820191906000526020600020905b8154815290600101906020018083116108d957829003601f168201915b50505060028085018054604080516020601f60001961010060018716150201909416959095049283018590048502810185019091528181529596959450909250908301828280156109885780601f1061095d57610100808354040283529160200191610988565b820191906000526020600020905b81548152906001019060200180831161096b57829003601f168201915b5050505060038301805460408051602060026001851615610100026000190190941693909304601f8101849004840282018401909252818152949594935090830182828015610a185780601f106109ed57610100808354040283529160200191610a18565b820191906000526020600020905b8154815290600101906020018083116109fb57829003601f168201915b5050505060048301805460408051602060026001851615610100026000190190941693909304601f8101849004840282018401909252818152949594935090830182828015610aa85780601f10610a7d57610100808354040283529160200191610aa8565b820191906000526020600020905b815481529060010190602001808311610a8b57829003601f168201915b5050505060058301805460408051602060026001851615610100026000190190941693909304601f8101849004840282018401909252818152949594935090830182828015610b385780601f10610b0d57610100808354040283529160200191610b38565b820191906000526020600020905b815481529060010190602001808311610b1b57829003601f168201915b5050505060068301805460408051602060026001851615610100026000190190941693909304601f8101849004840282018401909252818152949594935090830182828015610bc85780601f10610b9d57610100808354040283529160200191610bc8565b820191906000526020600020905b815481529060010190602001808311610bab57829003601f168201915b5050506007909301549192505060ff1688565b828054600181600116156101000203166002900490600052602060002090601f016020900481019282601f10610c1c57805160ff1916838001178555610c49565b82800160010185558215610c49579182015b82811115610c49578251825591602001919060010190610c2e565b50610c55929150610c59565b5090565b610c7391905b80821115610c555760008155600101610c5f565b9056fea265627a7a7231582005215ac3b892ae7a83fe6ba4f3834c49eb5e36fcd205d84e2bf93e7f0f0b1a0364736f6c63430005100032",
  "source": "pragma solidity =0.5.16;\r\ncontract Cert{\r\n    uint public count=0;\r\n    struct Task{\r\n        uint id;\r\n        string hashval;\r\n        string name;\r\n        string course;\r\n        string issuer;\r\n        string date;\r\n        string percentage;\r\n        bool exists;\r\n    }\r\n    mapping(string => Task)public  tasks;\r\n    \r\n    constructor() public{\r\n        createTask(\"123\", \"Mirza Mohammad Baig\", \"testing Web3\", \"BVRIT\", \"15-11-2022\", \"100\");\r\n    }\r\n\r\n    function createTask(string memory _hashval,string memory _name,string memory _course, string memory _issuer, string memory _date,string memory _percentage) public{\r\n        count ++;\r\n        tasks[_hashval] = Task(count, _hashval,_name, _course, _issuer, _date,_percentage,  true);\r\n    }\r\n}",
  "sourcePath": "C:\\Users\\Mirza mohammed baig\\OneDrive\\Desktop\\DGVB\\contracts\\Cert.sol",
  "compiler": {
    "name": "solc",
    "version": "0.5.16+commit.9c3226ce.Emscripten.clang"
  },
  "schemaVersion": "3.4.10",
  "updatedAt": "2023-03-03T10:58:19.215Z",
  "networkType": "ethereum",
  "devdoc": {
    "methods": {}
  },
  "userdoc": {
    "methods": {}
  }
}