{
  "contractName": "Questions",
  "abi": [
    {
      "inputs": [],
      "payable": false,
      "stateMutability": "nonpayable",
      "type": "constructor"
    },
    {
      "constant": true,
      "inputs": [],
      "name": "count",
      "outputs": [
        {
          "internalType": "uint256",
          "name": "",
          "type": "uint256"
        }
      ],
      "payable": false,
      "stateMutability": "view",
      "type": "function"
    },
    {
      "constant": true,
      "inputs": [
        {
          "internalType": "string",
          "name": "",
          "type": "string"
        }
      ],
      "name": "papers",
      "outputs": [
        {
          "internalType": "uint256",
          "name": "id",
          "type": "uint256"
        },
        {
          "internalType": "string",
          "name": "hashval",
          "type": "string"
        },
        {
          "internalType": "string",
          "name": "text",
          "type": "string"
        },
        {
          "internalType": "string",
          "name": "issuer",
          "type": "string"
        },
        {
          "internalType": "string",
          "name": "date",
          "type": "string"
        },
        {
          "internalType": "string",
          "name": "branch",
          "type": "string"
        },
        {
          "internalType": "bool",
          "name": "exists",
          "type": "bool"
        }
      ],
      "payable": false,
      "stateMutability": "view",
      "type": "function"
    },
    {
      "constant": false,
      "inputs": [
        {
          "internalType": "string",
          "name": "_hashval",
          "type": "string"
        },
        {
          "internalType": "string",
          "name": "_text",
          "type": "string"
        },
        {
          "internalType": "string",
          "name": "_issuer",
          "type": "string"
        },
        {
          "internalType": "string",
          "name": "_date",
          "type": "string"
        },
        {
          "internalType": "string",
          "name": "_branch",
          "type": "string"
        }
      ],
      "name": "createPaper",
      "outputs": [],
      "payable": false,
      "stateMutability": "nonpayable",
      "type": "function"
    }
  ],
  "bytecode": "0x6080604052600080553480156200001557600080fd5b50620000c26040518060400160405280600381526020016231323360e81b8152506040518060400160405280600881526020016738bab2b9ba34b7b760c11b8152506040518060400160405280600a8152602001696973737565724e616d6560b01b815250604051806040016040528060048152602001636461746560e01b815250604051806040016040528060068152602001650c4e4c2dcc6d60d31b815250620000c860201b60201c565b620002c9565b600080546001908101918290556040805160e0810182529283526020808401899052838201889052606084018790526080840186905260a0840185905260c084018390529051885189928291908401908083835b602083106200013d5780518252601f1990920191602091820191016200011c565b51815160209384036101000a6000190180199092169116179052920194855250604051938490038101909320845181558484015180519194620001899450600186019350019062000224565b5060408201518051620001a791600284019160209091019062000224565b5060608201518051620001c591600384019160209091019062000224565b5060808201518051620001e391600484019160209091019062000224565b5060a082015180516200020191600584019160209091019062000224565b5060c091909101516006909101805460ff19169115159190911790555050505050565b828054600181600116156101000203166002900490600052602060002090601f016020900481019282601f106200026757805160ff191683800117855562000297565b8280016001018555821562000297579182015b82811115620002975782518255916020019190600101906200027a565b50620002a5929150620002a9565b5090565b620002c691905b80821115620002a55760008155600101620002b0565b90565b610b0480620002d96000396000f3fe608060405234801561001057600080fd5b50600436106100415760003560e01c806306661abd1461004657806369071c70146100605780636d35049614610326575b600080fd5b61004e6105e0565b60408051918252519081900360200190f35b6101046004803603602081101561007657600080fd5b810190602081018135600160201b81111561009057600080fd5b8201836020820111156100a257600080fd5b803590602001918460018302840111600160201b831117156100c357600080fd5b91908080601f0160208091040260200160405190810160405280939291908181526020018383808284376000920191909152509295506105e6945050505050565b6040518088815260200180602001806020018060200180602001806020018715151515815260200186810386528c818151815260200191508051906020019080838360005b83811015610161578181015183820152602001610149565b50505050905090810190601f16801561018e5780820380516001836020036101000a031916815260200191505b5086810385528b5181528b516020918201918d019080838360005b838110156101c15781810151838201526020016101a9565b50505050905090810190601f1680156101ee5780820380516001836020036101000a031916815260200191505b5086810384528a5181528a516020918201918c019080838360005b83811015610221578181015183820152602001610209565b50505050905090810190601f16801561024e5780820380516001836020036101000a031916815260200191505b5086810383528951815289516020918201918b019080838360005b83811015610281578181015183820152602001610269565b50505050905090810190601f1680156102ae5780820380516001836020036101000a031916815260200191505b5086810382528851815288516020918201918a019080838360005b838110156102e15781810151838201526020016102c9565b50505050905090810190601f16801561030e5780820380516001836020036101000a031916815260200191505b509c5050505050505050505050505060405180910390f35b6105de600480360360a081101561033c57600080fd5b810190602081018135600160201b81111561035657600080fd5b82018360208201111561036857600080fd5b803590602001918460018302840111600160201b8311171561038957600080fd5b91908080601f0160208091040260200160405190810160405280939291908181526020018383808284376000920191909152509295949360208101935035915050600160201b8111156103db57600080fd5b8201836020820111156103ed57600080fd5b803590602001918460018302840111600160201b8311171561040e57600080fd5b91908080601f0160208091040260200160405190810160405280939291908181526020018383808284376000920191909152509295949360208101935035915050600160201b81111561046057600080fd5b82018360208201111561047257600080fd5b803590602001918460018302840111600160201b8311171561049357600080fd5b91908080601f0160208091040260200160405190810160405280939291908181526020018383808284376000920191909152509295949360208101935035915050600160201b8111156104e557600080fd5b8201836020820111156104f757600080fd5b803590602001918460018302840111600160201b8311171561051857600080fd5b91908080601f0160208091040260200160405190810160405280939291908181526020018383808284376000920191909152509295949360208101935035915050600160201b81111561056a57600080fd5b82018360208201111561057c57600080fd5b803590602001918460018302840111600160201b8311171561059d57600080fd5b91908080601f0160208091040260200160405190810160405280939291908181526020018383808284376000920191909152509295506108e4945050505050565b005b60005481565b80516020818301810180516001808352938301948301949094209390528254838301805460408051600296831615610100026000190190921695909504601f8101859004850282018501909552848152919493919290919083018282801561068f5780601f106106645761010080835404028352916020019161068f565b820191906000526020600020905b81548152906001019060200180831161067257829003601f168201915b50505060028085018054604080516020601f60001961010060018716150201909416959095049283018590048502810185019091528181529596959450909250908301828280156107215780601f106106f657610100808354040283529160200191610721565b820191906000526020600020905b81548152906001019060200180831161070457829003601f168201915b5050505060038301805460408051602060026001851615610100026000190190941693909304601f81018490048402820184019092528181529495949350908301828280156107b15780601f10610786576101008083540402835291602001916107b1565b820191906000526020600020905b81548152906001019060200180831161079457829003601f168201915b5050505060048301805460408051602060026001851615610100026000190190941693909304601f81018490048402820184019092528181529495949350908301828280156108415780601f1061081657610100808354040283529160200191610841565b820191906000526020600020905b81548152906001019060200180831161082457829003601f168201915b5050505060058301805460408051602060026001851615610100026000190190941693909304601f81018490048402820184019092528181529495949350908301828280156108d15780601f106108a6576101008083540402835291602001916108d1565b820191906000526020600020905b8154815290600101906020018083116108b457829003601f168201915b5050506006909301549192505060ff1687565b600080546001908101918290556040805160e0810182529283526020808401899052838201889052606084018790526080840186905260a0840185905260c084018390529051885189928291908401908083835b602083106109575780518252601f199092019160209182019101610938565b51815160209384036101000a60001901801990921691161790529201948552506040519384900381019093208451815584840151805191946109a194506001860193500190610a34565b50604082015180516109bd916002840191602090910190610a34565b50606082015180516109d9916003840191602090910190610a34565b50608082015180516109f5916004840191602090910190610a34565b5060a08201518051610a11916005840191602090910190610a34565b5060c091909101516006909101805460ff19169115159190911790555050505050565b828054600181600116156101000203166002900490600052602060002090601f016020900481019282601f10610a7557805160ff1916838001178555610aa2565b82800160010185558215610aa2579182015b82811115610aa2578251825591602001919060010190610a87565b50610aae929150610ab2565b5090565b610acc91905b80821115610aae5760008155600101610ab8565b9056fea265627a7a7231582065e1134a17815ade1539d46352e9099b1dab5ef665bad7e2dbf424c2b03d088d64736f6c63430005100032",
  "source": "pragma solidity =0.5.16;\r\ncontract Questions{\r\n    uint public count=0;\r\n    struct Paper{\r\n        uint id;\r\n        string hashval;\r\n        string text;\r\n        string issuer;\r\n        string date;\r\n        string branch;\r\n        bool exists;\r\n    }\r\n    mapping(string => Paper)public  papers;\r\n    \r\n    constructor() public{\r\n        createPaper(\"123\", \"question\", \"issuerName\", \"date\", \"branch\");\r\n    }\r\n\r\n    function createPaper(string memory _hashval,string memory _text,string memory _issuer, string memory _date, string memory _branch) public{\r\n        count ++;\r\n        papers[_hashval] = Paper(count, _hashval,_text, _issuer, _date, _branch, true);\r\n    }\r\n}",
  "sourcePath": "C:\\Users\\Mirza mohammed baig\\OneDrive\\Desktop\\DGVB\\contracts\\Questions.sol",
  "compiler": {
    "name": "solc",
    "version": "0.5.16+commit.9c3226ce.Emscripten.clang"
  },
  "schemaVersion": "3.4.10",
  "updatedAt": "2023-03-03T10:58:19.220Z",
  "networkType": "ethereum",
  "devdoc": {
    "methods": {}
  },
  "userdoc": {
    "methods": {}
  }
}